{
  "_format": "hh-sol-artifact-1",
  "contractName": "CharityScheduledDistribution",
  "sourceName": "contracts/CharityScheduledDistribution.sol",
  "abi": [
    {
      "inputs": [],
      "stateMutability": "nonpayable",
      "type": "constructor"
    },
    {
      "inputs": [],
      "name": "EnforcedPause",
      "type": "error"
    },
    {
      "inputs": [],
      "name": "ExpectedPause",
      "type": "error"
    },
    {
      "inputs": [
        {
          "internalType": "address",
          "name": "owner",
          "type": "address"
        }
      ],
      "name": "OwnableInvalidOwner",
      "type": "error"
    },
    {
      "inputs": [
        {
          "internalType": "address",
          "name": "account",
          "type": "address"
        }
      ],
      "name": "OwnableUnauthorizedAccount",
      "type": "error"
    },
    {
      "inputs": [],
      "name": "ReentrancyGuardReentrantCall",
      "type": "error"
    },
    {
      "inputs": [
        {
          "internalType": "address",
          "name": "token",
          "type": "address"
        }
      ],
      "name": "SafeERC20FailedOperation",
      "type": "error"
    },
    {
      "anonymous": false,
      "inputs": [
        {
          "indexed": true,
          "internalType": "address",
          "name": "charity",
          "type": "address"
        }
      ],
      "name": "CharityAdded",
      "type": "event"
    },
    {
      "anonymous": false,
      "inputs": [
        {
          "indexed": true,
          "internalType": "address",
          "name": "charity",
          "type": "address"
        }
      ],
      "name": "CharityRemoved",
      "type": "event"
    },
    {
      "anonymous": false,
      "inputs": [
        {
          "indexed": true,
          "internalType": "uint256",
          "name": "scheduleId",
          "type": "uint256"
        },
        {
          "indexed": true,
          "internalType": "address",
          "name": "charity",
          "type": "address"
        },
        {
          "indexed": false,
          "internalType": "address",
          "name": "token",
          "type": "address"
        },
        {
          "indexed": false,
          "internalType": "uint256",
          "name": "amount",
          "type": "uint256"
        },
        {
          "indexed": false,
          "internalType": "uint256",
          "name": "monthsRemaining",
          "type": "uint256"
        }
      ],
      "name": "DistributionExecuted",
      "type": "event"
    },
    {
      "anonymous": false,
      "inputs": [
        {
          "indexed": true,
          "internalType": "address",
          "name": "previousOwner",
          "type": "address"
        },
        {
          "indexed": true,
          "internalType": "address",
          "name": "newOwner",
          "type": "address"
        }
      ],
      "name": "OwnershipTransferred",
      "type": "event"
    },
    {
      "anonymous": false,
      "inputs": [
        {
          "indexed": false,
          "internalType": "address",
          "name": "account",
          "type": "address"
        }
      ],
      "name": "Paused",
      "type": "event"
    },
    {
      "anonymous": false,
      "inputs": [
        {
          "indexed": true,
          "internalType": "uint256",
          "name": "scheduleId",
          "type": "uint256"
        }
      ],
      "name": "ScheduleCancelled",
      "type": "event"
    },
    {
      "anonymous": false,
      "inputs": [
        {
          "indexed": true,
          "internalType": "uint256",
          "name": "scheduleId",
          "type": "uint256"
        },
        {
          "indexed": true,
          "internalType": "address",
          "name": "donor",
          "type": "address"
        },
        {
          "indexed": true,
          "internalType": "address",
          "name": "charity",
          "type": "address"
        },
        {
          "indexed": false,
          "internalType": "address",
          "name": "token",
          "type": "address"
        },
        {
          "indexed": false,
          "internalType": "uint256",
          "name": "totalAmount",
          "type": "uint256"
        },
        {
          "indexed": false,
          "internalType": "uint256",
          "name": "amountPerMonth",
          "type": "uint256"
        },
        {
          "indexed": false,
          "internalType": "uint256",
          "name": "months",
          "type": "uint256"
        }
      ],
      "name": "ScheduleCreated",
      "type": "event"
    },
    {
      "anonymous": false,
      "inputs": [
        {
          "indexed": true,
          "internalType": "address",
          "name": "token",
          "type": "address"
        },
        {
          "indexed": false,
          "internalType": "uint256",
          "name": "price",
          "type": "uint256"
        }
      ],
      "name": "TokenPriceSet",
      "type": "event"
    },
    {
      "anonymous": false,
      "inputs": [
        {
          "indexed": false,
          "internalType": "address",
          "name": "account",
          "type": "address"
        }
      ],
      "name": "Unpaused",
      "type": "event"
    },
    {
      "inputs": [],
      "name": "DISTRIBUTION_INTERVAL",
      "outputs": [
        {
          "internalType": "uint256",
          "name": "",
          "type": "uint256"
        }
      ],
      "stateMutability": "view",
      "type": "function"
    },
    {
      "inputs": [],
      "name": "MAX_MONTHS",
      "outputs": [
        {
          "internalType": "uint256",
          "name": "",
          "type": "uint256"
        }
      ],
      "stateMutability": "view",
      "type": "function"
    },
    {
      "inputs": [],
      "name": "MIN_DONATION_USD",
      "outputs": [
        {
          "internalType": "uint256",
          "name": "",
          "type": "uint256"
        }
      ],
      "stateMutability": "view",
      "type": "function"
    },
    {
      "inputs": [],
      "name": "MIN_MONTHS",
      "outputs": [
        {
          "internalType": "uint256",
          "name": "",
          "type": "uint256"
        }
      ],
      "stateMutability": "view",
      "type": "function"
    },
    {
      "inputs": [
        {
          "internalType": "address",
          "name": "charity",
          "type": "address"
        }
      ],
      "name": "addCharity",
      "outputs": [],
      "stateMutability": "nonpayable",
      "type": "function"
    },
    {
      "inputs": [
        {
          "internalType": "uint256",
          "name": "scheduleId",
          "type": "uint256"
        }
      ],
      "name": "cancelSchedule",
      "outputs": [],
      "stateMutability": "nonpayable",
      "type": "function"
    },
    {
      "inputs": [
        {
          "internalType": "address",
          "name": "charity",
          "type": "address"
        },
        {
          "internalType": "address",
          "name": "token",
          "type": "address"
        },
        {
          "internalType": "uint256",
          "name": "totalAmount",
          "type": "uint256"
        },
        {
          "internalType": "uint256",
          "name": "numberOfMonths",
          "type": "uint256"
        },
        {
          "internalType": "uint256",
          "name": "tokenPriceUSD",
          "type": "uint256"
        }
      ],
      "name": "createSchedule",
      "outputs": [],
      "stateMutability": "nonpayable",
      "type": "function"
    },
    {
      "inputs": [
        {
          "internalType": "uint256",
          "name": "",
          "type": "uint256"
        }
      ],
      "name": "donationSchedules",
      "outputs": [
        {
          "internalType": "address",
          "name": "donor",
          "type": "address"
        },
        {
          "internalType": "address",
          "name": "charity",
          "type": "address"
        },
        {
          "internalType": "address",
          "name": "token",
          "type": "address"
        },
        {
          "internalType": "uint256",
          "name": "totalAmount",
          "type": "uint256"
        },
        {
          "internalType": "uint256",
          "name": "amountPerMonth",
          "type": "uint256"
        },
        {
          "internalType": "uint256",
          "name": "monthsRemaining",
          "type": "uint256"
        },
        {
          "internalType": "uint256",
          "name": "nextDistributionTimestamp",
          "type": "uint256"
        },
        {
          "internalType": "bool",
          "name": "active",
          "type": "bool"
        }
      ],
      "stateMutability": "view",
      "type": "function"
    },
    {
      "inputs": [
        {
          "internalType": "uint256[]",
          "name": "scheduleIds",
          "type": "uint256[]"
        }
      ],
      "name": "executeDistributions",
      "outputs": [],
      "stateMutability": "nonpayable",
      "type": "function"
    },
    {
      "inputs": [
        {
          "internalType": "address",
          "name": "donor",
          "type": "address"
        }
      ],
      "name": "getDonorSchedules",
      "outputs": [
        {
          "internalType": "uint256[]",
          "name": "",
          "type": "uint256[]"
        }
      ],
      "stateMutability": "view",
      "type": "function"
    },
    {
      "inputs": [
        {
          "internalType": "address",
          "name": "token",
          "type": "address"
        }
      ],
      "name": "getTokenPrice",
      "outputs": [
        {
          "internalType": "uint256",
          "name": "",
          "type": "uint256"
        }
      ],
      "stateMutability": "view",
      "type": "function"
    },
    {
      "inputs": [],
      "name": "nextScheduleId",
      "outputs": [
        {
          "internalType": "uint256",
          "name": "",
          "type": "uint256"
        }
      ],
      "stateMutability": "view",
      "type": "function"
    },
    {
      "inputs": [],
      "name": "owner",
      "outputs": [
        {
          "internalType": "address",
          "name": "",
          "type": "address"
        }
      ],
      "stateMutability": "view",
      "type": "function"
    },
    {
      "inputs": [],
      "name": "pause",
      "outputs": [],
      "stateMutability": "nonpayable",
      "type": "function"
    },
    {
      "inputs": [],
      "name": "paused",
      "outputs": [
        {
          "internalType": "bool",
          "name": "",
          "type": "bool"
        }
      ],
      "stateMutability": "view",
      "type": "function"
    },
    {
      "inputs": [
        {
          "internalType": "address",
          "name": "charity",
          "type": "address"
        }
      ],
      "name": "removeCharity",
      "outputs": [],
      "stateMutability": "nonpayable",
      "type": "function"
    },
    {
      "inputs": [],
      "name": "renounceOwnership",
      "outputs": [],
      "stateMutability": "nonpayable",
      "type": "function"
    },
    {
      "inputs": [
        {
          "internalType": "address",
          "name": "token",
          "type": "address"
        },
        {
          "internalType": "uint256",
          "name": "price",
          "type": "uint256"
        }
      ],
      "name": "setTokenPrice",
      "outputs": [],
      "stateMutability": "nonpayable",
      "type": "function"
    },
    {
      "inputs": [
        {
          "internalType": "address",
          "name": "",
          "type": "address"
        }
      ],
      "name": "tokenPrices",
      "outputs": [
        {
          "internalType": "uint256",
          "name": "",
          "type": "uint256"
        }
      ],
      "stateMutability": "view",
      "type": "function"
    },
    {
      "inputs": [
        {
          "internalType": "address",
          "name": "newOwner",
          "type": "address"
        }
      ],
      "name": "transferOwnership",
      "outputs": [],
      "stateMutability": "nonpayable",
      "type": "function"
    },
    {
      "inputs": [],
      "name": "unpause",
      "outputs": [],
      "stateMutability": "nonpayable",
      "type": "function"
    },
    {
      "inputs": [
        {
          "internalType": "address",
          "name": "",
          "type": "address"
        }
      ],
      "name": "verifiedCharities",
      "outputs": [
        {
          "internalType": "bool",
          "name": "",
          "type": "bool"
        }
      ],
      "stateMutability": "view",
      "type": "function"
    }
  ],
  "bytecode": "0x608060405234801561001057600080fd5b50338061003757604051631e4fbdf760e01b81526000600482015260240160405180910390fd5b6100408161004a565b506001805561009a565b600080546001600160a01b038381166001600160a01b0319831681178455604051919092169283917f8be0079c531659141344cd1fd0a4f28419497f9722a3daafe3b4186f6b6457e09190a35050565b611301806100a96000396000f3fe608060405234801561001057600080fd5b50600436106101425760003560e01c8063715018a6116100b8578063a3c821a71161007c578063a3c821a714610309578063abefe5911461032c578063d02641a01461033f578063d4f5ac9c14610352578063da5d24cf14610365578063f2fde38b1461036d57600080fd5b8063715018a6146102c057806377e3cba6146102c857806378b14f0a146102d35780638456cb59146102e65780638da5cb5b146102ee57600080fd5b80633f4ba83a1161010a5780633f4ba83a146101b5578063431f63c9146101bd57806350606374146101d05780635c975abb146101f05780636de24cb3146102075780637106126a1461020f57600080fd5b806308b26b75146101475780630f038d411461016457806313bcdac61461016d578063204120bc14610182578063237fc2a6146101a2575b600080fd5b61015162278d0081565b6040519081526020015b60405180910390f35b61015160045481565b61018061017b3660046110a2565b610380565b005b6101516101903660046110ef565b60056020526000908152604090205481565b6101806101b0366004611111565b610746565b61018061087a565b6101806101cb36600461112a565b61088c565b6101e36101de3660046110ef565b61097f565b60405161015b9190611154565b60025460ff165b604051901515815260200161015b565b610151600181565b61027461021d366004611111565b6003602081905260009182526040909120805460018201546002830154938301546004840154600585015460068601546007909601546001600160a01b039586169794861696959094169492939192909160ff1688565b604080516001600160a01b03998a168152978916602089015295909716948601949094526060850192909252608084015260a083015260c082015290151560e08201526101000161015b565b610180610acd565b610151633b9aca0081565b6101806102e13660046110ef565b610adf565b610180610b89565b6000546040516001600160a01b03909116815260200161015b565b6101f76103173660046110ef565b60066020526000908152604090205460ff1681565b61018061033a3660046110ef565b610b99565b61015161034d3660046110ef565b610bea565b610180610360366004611198565b610c46565b610151603c81565b61018061037b3660046110ef565b610dba565b610388610df5565b610390610e1f565b6001600160a01b03851660009081526006602052604090205460ff166103f45760405162461bcd60e51b815260206004820152601460248201527310da185c9a5d1e481b9bdd081d995c9a599a595960621b60448201526064015b60405180910390fd5b600083116104395760405162461bcd60e51b81526020600482015260126024820152710416d6f756e74206d757374206265203e20360741b60448201526064016103eb565b6001821015801561044b5750603c8211155b6104975760405162461bcd60e51b815260206004820152601860248201527f496e76616c6964206e756d626572206f66206d6f6e746873000000000000000060448201526064016103eb565b600081116104e75760405162461bcd60e51b815260206004820152601760248201527f546f6b656e207072696365206d757374206265203e203000000000000000000060448201526064016103eb565b6000670de0b6b3a76400006104fc8386611223565b610506919061123a565b9050633b9aca0081101561055c5760405162461bcd60e51b815260206004820181905260248201527f446f6e6174696f6e2062656c6f77206d696e696d756d2028243130205553442960448201526064016103eb565b6000610568848661123a565b9050600081116105ba5760405162461bcd60e51b815260206004820152601860248201527f4d6f6e74686c7920616d6f756e7420746f6f20736d616c6c000000000000000060448201526064016103eb565b6105cf6001600160a01b038716333088610e43565b60048054600091826105e08361125c565b919050559050604051806101000160405280336001600160a01b03168152602001896001600160a01b03168152602001886001600160a01b0316815260200187815260200183815260200186815260200162278d00426106409190611275565b81526001602091820181905260008481526003808452604091829020855181546001600160a01b03199081166001600160a01b03928316178355878701519583018054821696831696909617909555868401516002830180549096169082161790945560608087015192820192909255608080870151600483015560a0870151600583015560c0870151600683015560e0909601516007909101805460ff191691151591909117905581518c841681529384018b905290830186905282018890528a1691339184917f148749c9931938e17089c2250539815e1d8e6300322ca8878ea64e1eb8833526910160405180910390a450505061073f60018055565b5050505050565b61074e610df5565b610756610e1f565b600081815260036020526040902080546001600160a01b031633146107ad5760405162461bcd60e51b815260206004820152600d60248201526c2737ba103a3432903237b737b960991b60448201526064016103eb565b600781015460ff166107f75760405162461bcd60e51b81526020600482015260136024820152725363686564756c65206e6f742061637469766560681b60448201526064016103eb565b60008160050154826004015461080d9190611223565b60078301805460ff191690556000600584015582546002840154919250610841916001600160a01b03908116911683610eb0565b60405183907faafc09ed0175af188e56c12f5eda79a11a6d2d747621fb47b25f301d499fdc5e90600090a2505061087760018055565b50565b610882610ee6565b61088a610f13565b565b610894610ee6565b6001600160a01b0382166108e25760405162461bcd60e51b8152602060048201526015602482015274496e76616c696420746f6b656e206164647265737360581b60448201526064016103eb565b600081116109265760405162461bcd60e51b815260206004820152601160248201527005072696365206d757374206265203e203607c1b60448201526064016103eb565b6001600160a01b03821660008181526005602052604090819020839055517f7fa0e112e5801d5b0fbd79c812915f0ab2461b234234b9c64a7efd9a25c6abb6906109739084815260200190565b60405180910390a25050565b6060600060015b6004548110156109ef576000818152600360205260409020546001600160a01b0385811691161480156109ca575060008181526003602052604090206007015460ff165b156109dd57816109d98161125c565b9250505b806109e78161125c565b915050610986565b5060008167ffffffffffffffff811115610a0b57610a0b611288565b604051908082528060200260200182016040528015610a34578160200160208202803683370190505b509050600060015b600454811015610ac3576000818152600360205260409020546001600160a01b038781169116148015610a80575060008181526003602052604090206007015460ff165b15610ab15780838381518110610a9857610a9861129e565b602090810291909101015281610aad8161125c565b9250505b80610abb8161125c565b915050610a3c565b5090949350505050565b610ad5610ee6565b61088a6000610f65565b610ae7610ee6565b6001600160a01b038116610b3d5760405162461bcd60e51b815260206004820152601760248201527f496e76616c69642063686172697479206164647265737300000000000000000060448201526064016103eb565b6001600160a01b038116600081815260066020526040808220805460ff19166001179055517fc17dc19a503d796a336a016f10743118db2bdadb16ac4c19aff01607560986359190a250565b610b91610ee6565b61088a610fb5565b610ba1610ee6565b6001600160a01b038116600081815260066020526040808220805460ff19169055517f7db8df158d85e9475e8dd97a5e3e193c67dc6d977d2fc4f7321049b6c0b70e939190a250565b6001600160a01b03811660009081526005602052604081205480610c405760405162461bcd60e51b815260206004820152600d60248201526c141c9a58d9481b9bdd081cd95d609a1b60448201526064016103eb565b92915050565b610c4e610df5565b610c56610e1f565b60005b81811015610dac576000838383818110610c7557610c7561129e565b6020908102929092013560008181526003909352604090922060078101549293509160ff1690508015610cac575060008160050154115b8015610cbc575080600601544210155b15610d9757600181015460048201546002830154610ce8926001600160a01b0391821692911690610eb0565b600581018054906000610cfa836112b4565b919050555062278d00816006016000828254610d169190611275565b90915550506005810154600003610d345760078101805460ff191690555b6001810154600282015460048301546005840154604080516001600160a01b039485168152602081019390935282015291169083907f8cfc09761c901923af6820a6090caae5ae8d84bf101518c3bc555e520665403d9060600160405180910390a35b50508080610da49061125c565b915050610c59565b50610db660018055565b5050565b610dc2610ee6565b6001600160a01b038116610dec57604051631e4fbdf760e01b8152600060048201526024016103eb565b61087781610f65565b600260015403610e1857604051633ee5aeb560e01b815260040160405180910390fd5b6002600155565b60025460ff161561088a5760405163d93c066560e01b815260040160405180910390fd5b6040516001600160a01b038481166024830152838116604483015260648201839052610eaa9186918216906323b872dd906084015b604051602081830303815290604052915060e01b6020820180516001600160e01b038381831617835250505050610ff2565b50505050565b6040516001600160a01b03838116602483015260448201839052610ee191859182169063a9059cbb90606401610e78565b505050565b6000546001600160a01b0316331461088a5760405163118cdaa760e01b81523360048201526024016103eb565b610f1b611063565b6002805460ff191690557f5db9ee0a495bf2e6ff9c91a7834c1ba4fdd244a5e8aa4e537bd38aeae4b073aa335b6040516001600160a01b03909116815260200160405180910390a1565b600080546001600160a01b038381166001600160a01b0319831681178455604051919092169283917f8be0079c531659141344cd1fd0a4f28419497f9722a3daafe3b4186f6b6457e09190a35050565b610fbd610e1f565b6002805460ff191660011790557f62e78cea01bee320cd4e420270b5ea74000d11b0c9f74754ebdbfc544b05a258610f483390565b600080602060008451602086016000885af180611015576040513d6000823e3d81fd5b50506000513d9150811561102d57806001141561103a565b6001600160a01b0384163b155b15610eaa57604051635274afe760e01b81526001600160a01b03851660048201526024016103eb565b60025460ff1661088a57604051638dfc202b60e01b815260040160405180910390fd5b80356001600160a01b038116811461109d57600080fd5b919050565b600080600080600060a086880312156110ba57600080fd5b6110c386611086565b94506110d160208701611086565b94979496505050506040830135926060810135926080909101359150565b60006020828403121561110157600080fd5b61110a82611086565b9392505050565b60006020828403121561112357600080fd5b5035919050565b6000806040838503121561113d57600080fd5b61114683611086565b946020939093013593505050565b6020808252825182820181905260009190848201906040850190845b8181101561118c57835183529284019291840191600101611170565b50909695505050505050565b600080602083850312156111ab57600080fd5b823567ffffffffffffffff808211156111c357600080fd5b818501915085601f8301126111d757600080fd5b8135818111156111e657600080fd5b8660208260051b85010111156111fb57600080fd5b60209290920196919550909350505050565b634e487b7160e01b600052601160045260246000fd5b8082028115828204841417610c4057610c4061120d565b60008261125757634e487b7160e01b600052601260045260246000fd5b500490565b60006001820161126e5761126e61120d565b5060010190565b80820180821115610c4057610c4061120d565b634e487b7160e01b600052604160045260246000fd5b634e487b7160e01b600052603260045260246000fd5b6000816112c3576112c361120d565b50600019019056fea2646970667358221220cf6fb6ecf7f213dbccaa0026a2d02c0606db66477318f56f828501daedd2465364736f6c63430008140033",
  "linkReferences": {},
  "deployedLinkReferences": {}
}