{
  "_format": "hh-sol-artifact-1",
  "contractName": "DurationDonation",
  "sourceName": "contracts/DurationDonation.sol",
  "abi": [
    {
      "inputs": [
        {
          "internalType": "address",
          "name": "_giveProtocolTreasury",
          "type": "address"
        }
      ],
      "stateMutability": "nonpayable",
      "type": "constructor"
    },
    {
      "inputs": [
        {
          "internalType": "address",
          "name": "charity",
          "type": "address"
        }
      ],
      "name": "CharityNotActive",
      "type": "error"
    },
    {
      "inputs": [
        {
          "internalType": "address",
          "name": "charity",
          "type": "address"
        }
      ],
      "name": "CharityNotRegistered",
      "type": "error"
    },
    {
      "inputs": [],
      "name": "EnforcedPause",
      "type": "error"
    },
    {
      "inputs": [],
      "name": "ExpectedPause",
      "type": "error"
    },
    {
      "inputs": [
        {
          "internalType": "uint256",
          "name": "amount",
          "type": "uint256"
        },
        {
          "internalType": "string",
          "name": "reason",
          "type": "string"
        }
      ],
      "name": "InvalidAmount",
      "type": "error"
    },
    {
      "inputs": [
        {
          "internalType": "uint8",
          "name": "tipOption",
          "type": "uint8"
        }
      ],
      "name": "InvalidTipOption",
      "type": "error"
    },
    {
      "inputs": [
        {
          "internalType": "address",
          "name": "owner",
          "type": "address"
        }
      ],
      "name": "OwnableInvalidOwner",
      "type": "error"
    },
    {
      "inputs": [
        {
          "internalType": "address",
          "name": "account",
          "type": "address"
        }
      ],
      "name": "OwnableUnauthorizedAccount",
      "type": "error"
    },
    {
      "inputs": [],
      "name": "ReentrancyGuardReentrantCall",
      "type": "error"
    },
    {
      "inputs": [
        {
          "internalType": "address",
          "name": "token",
          "type": "address"
        }
      ],
      "name": "SafeERC20FailedOperation",
      "type": "error"
    },
    {
      "inputs": [
        {
          "internalType": "address",
          "name": "token",
          "type": "address"
        },
        {
          "internalType": "address",
          "name": "from",
          "type": "address"
        },
        {
          "internalType": "address",
          "name": "to",
          "type": "address"
        },
        {
          "internalType": "uint256",
          "name": "amount",
          "type": "uint256"
        }
      ],
      "name": "TransferFailed",
      "type": "error"
    },
    {
      "anonymous": false,
      "inputs": [
        {
          "indexed": true,
          "internalType": "address",
          "name": "charity",
          "type": "address"
        },
        {
          "indexed": false,
          "internalType": "uint256",
          "name": "timestamp",
          "type": "uint256"
        }
      ],
      "name": "CharityRegistered",
      "type": "event"
    },
    {
      "anonymous": false,
      "inputs": [
        {
          "indexed": true,
          "internalType": "address",
          "name": "charity",
          "type": "address"
        },
        {
          "indexed": false,
          "internalType": "bool",
          "name": "isActive",
          "type": "bool"
        }
      ],
      "name": "CharityStatusUpdated",
      "type": "event"
    },
    {
      "anonymous": false,
      "inputs": [
        {
          "indexed": true,
          "internalType": "address",
          "name": "donor",
          "type": "address"
        },
        {
          "indexed": true,
          "internalType": "address",
          "name": "charity",
          "type": "address"
        },
        {
          "indexed": false,
          "internalType": "address",
          "name": "token",
          "type": "address"
        },
        {
          "indexed": false,
          "internalType": "uint256",
          "name": "charityAmount",
          "type": "uint256"
        },
        {
          "indexed": false,
          "internalType": "uint256",
          "name": "platformTip",
          "type": "uint256"
        },
        {
          "indexed": false,
          "internalType": "uint256",
          "name": "totalTaxDeductible",
          "type": "uint256"
        },
        {
          "indexed": false,
          "internalType": "uint256",
          "name": "timestamp",
          "type": "uint256"
        },
        {
          "indexed": false,
          "internalType": "bytes32",
          "name": "donationId",
          "type": "bytes32"
        }
      ],
      "name": "DonationProcessed",
      "type": "event"
    },
    {
      "anonymous": false,
      "inputs": [
        {
          "indexed": true,
          "internalType": "address",
          "name": "previousOwner",
          "type": "address"
        },
        {
          "indexed": true,
          "internalType": "address",
          "name": "newOwner",
          "type": "address"
        }
      ],
      "name": "OwnershipTransferred",
      "type": "event"
    },
    {
      "anonymous": false,
      "inputs": [
        {
          "indexed": false,
          "internalType": "address",
          "name": "account",
          "type": "address"
        }
      ],
      "name": "Paused",
      "type": "event"
    },
    {
      "anonymous": false,
      "inputs": [
        {
          "indexed": true,
          "internalType": "bytes32",
          "name": "receiptId",
          "type": "bytes32"
        },
        {
          "indexed": true,
          "internalType": "address",
          "name": "donor",
          "type": "address"
        }
      ],
      "name": "TaxReceiptGenerated",
      "type": "event"
    },
    {
      "anonymous": false,
      "inputs": [
        {
          "indexed": true,
          "internalType": "address",
          "name": "oldTreasury",
          "type": "address"
        },
        {
          "indexed": true,
          "internalType": "address",
          "name": "newTreasury",
          "type": "address"
        }
      ],
      "name": "TreasuryUpdated",
      "type": "event"
    },
    {
      "anonymous": false,
      "inputs": [
        {
          "indexed": false,
          "internalType": "address",
          "name": "account",
          "type": "address"
        }
      ],
      "name": "Unpaused",
      "type": "event"
    },
    {
      "inputs": [],
      "name": "BASIS_POINTS",
      "outputs": [
        {
          "internalType": "uint256",
          "name": "",
          "type": "uint256"
        }
      ],
      "stateMutability": "view",
      "type": "function"
    },
    {
      "inputs": [],
      "name": "MINIMUM_DONATION",
      "outputs": [
        {
          "internalType": "uint256",
          "name": "",
          "type": "uint256"
        }
      ],
      "stateMutability": "view",
      "type": "function"
    },
    {
      "inputs": [
        {
          "internalType": "uint256",
          "name": "donationAmount",
          "type": "uint256"
        },
        {
          "internalType": "uint8",
          "name": "tipOption",
          "type": "uint8"
        }
      ],
      "name": "calculateSuggestedTip",
      "outputs": [
        {
          "internalType": "uint256",
          "name": "",
          "type": "uint256"
        }
      ],
      "stateMutability": "view",
      "type": "function"
    },
    {
      "inputs": [
        {
          "internalType": "address",
          "name": "",
          "type": "address"
        }
      ],
      "name": "charities",
      "outputs": [
        {
          "internalType": "bool",
          "name": "isRegistered",
          "type": "bool"
        },
        {
          "internalType": "address",
          "name": "walletAddress",
          "type": "address"
        },
        {
          "internalType": "uint256",
          "name": "totalReceived",
          "type": "uint256"
        },
        {
          "internalType": "bool",
          "name": "isActive",
          "type": "bool"
        }
      ],
      "stateMutability": "view",
      "type": "function"
    },
    {
      "inputs": [
        {
          "internalType": "address",
          "name": "",
          "type": "address"
        },
        {
          "internalType": "address",
          "name": "",
          "type": "address"
        }
      ],
      "name": "donations",
      "outputs": [
        {
          "internalType": "uint256",
          "name": "",
          "type": "uint256"
        }
      ],
      "stateMutability": "view",
      "type": "function"
    },
    {
      "inputs": [
        {
          "internalType": "address",
          "name": "charityAddress",
          "type": "address"
        }
      ],
      "name": "getCharityInfo",
      "outputs": [
        {
          "internalType": "bool",
          "name": "isRegistered",
          "type": "bool"
        },
        {
          "internalType": "address",
          "name": "walletAddress",
          "type": "address"
        },
        {
          "internalType": "uint256",
          "name": "totalReceived",
          "type": "uint256"
        },
        {
          "internalType": "bool",
          "name": "isActive",
          "type": "bool"
        }
      ],
      "stateMutability": "view",
      "type": "function"
    },
    {
      "inputs": [
        {
          "internalType": "address",
          "name": "donor",
          "type": "address"
        },
        {
          "internalType": "address",
          "name": "charity",
          "type": "address"
        }
      ],
      "name": "getDonationAmount",
      "outputs": [
        {
          "internalType": "uint256",
          "name": "",
          "type": "uint256"
        }
      ],
      "stateMutability": "view",
      "type": "function"
    },
    {
      "inputs": [],
      "name": "getSuggestedTipRates",
      "outputs": [
        {
          "internalType": "uint256[]",
          "name": "",
          "type": "uint256[]"
        }
      ],
      "stateMutability": "view",
      "type": "function"
    },
    {
      "inputs": [
        {
          "internalType": "bytes32",
          "name": "receiptId",
          "type": "bytes32"
        }
      ],
      "name": "getTaxReceipt",
      "outputs": [
        {
          "internalType": "address",
          "name": "donor",
          "type": "address"
        },
        {
          "internalType": "address",
          "name": "primaryBeneficiary",
          "type": "address"
        },
        {
          "internalType": "uint256",
          "name": "charityAmount",
          "type": "uint256"
        },
        {
          "internalType": "uint256",
          "name": "giveProtocolAmount",
          "type": "uint256"
        },
        {
          "internalType": "uint256",
          "name": "totalTaxDeductible",
          "type": "uint256"
        },
        {
          "internalType": "address",
          "name": "tokenAddress",
          "type": "address"
        },
        {
          "internalType": "uint256",
          "name": "timestamp",
          "type": "uint256"
        },
        {
          "internalType": "string",
          "name": "receiptType",
          "type": "string"
        }
      ],
      "stateMutability": "view",
      "type": "function"
    },
    {
      "inputs": [],
      "name": "giveProtocolTreasury",
      "outputs": [
        {
          "internalType": "address",
          "name": "",
          "type": "address"
        }
      ],
      "stateMutability": "view",
      "type": "function"
    },
    {
      "inputs": [],
      "name": "owner",
      "outputs": [
        {
          "internalType": "address",
          "name": "",
          "type": "address"
        }
      ],
      "stateMutability": "view",
      "type": "function"
    },
    {
      "inputs": [],
      "name": "pause",
      "outputs": [],
      "stateMutability": "nonpayable",
      "type": "function"
    },
    {
      "inputs": [],
      "name": "paused",
      "outputs": [
        {
          "internalType": "bool",
          "name": "",
          "type": "bool"
        }
      ],
      "stateMutability": "view",
      "type": "function"
    },
    {
      "inputs": [
        {
          "internalType": "address",
          "name": "charity",
          "type": "address"
        },
        {
          "internalType": "address",
          "name": "token",
          "type": "address"
        },
        {
          "internalType": "uint256",
          "name": "charityAmount",
          "type": "uint256"
        },
        {
          "internalType": "uint256",
          "name": "platformTip",
          "type": "uint256"
        }
      ],
      "name": "processDonation",
      "outputs": [],
      "stateMutability": "nonpayable",
      "type": "function"
    },
    {
      "inputs": [
        {
          "internalType": "address",
          "name": "charity",
          "type": "address"
        },
        {
          "internalType": "address",
          "name": "token",
          "type": "address"
        },
        {
          "internalType": "uint256",
          "name": "charityAmount",
          "type": "uint256"
        },
        {
          "internalType": "uint256",
          "name": "tipPercentage",
          "type": "uint256"
        }
      ],
      "name": "processDonationWithPercentageTip",
      "outputs": [],
      "stateMutability": "nonpayable",
      "type": "function"
    },
    {
      "inputs": [
        {
          "internalType": "address",
          "name": "charity",
          "type": "address"
        },
        {
          "internalType": "address",
          "name": "token",
          "type": "address"
        },
        {
          "internalType": "uint256",
          "name": "charityAmount",
          "type": "uint256"
        },
        {
          "internalType": "uint8",
          "name": "tipOption",
          "type": "uint8"
        }
      ],
      "name": "processDonationWithSuggestedTip",
      "outputs": [],
      "stateMutability": "nonpayable",
      "type": "function"
    },
    {
      "inputs": [
        {
          "internalType": "address",
          "name": "charityAddress",
          "type": "address"
        }
      ],
      "name": "registerCharity",
      "outputs": [],
      "stateMutability": "nonpayable",
      "type": "function"
    },
    {
      "inputs": [],
      "name": "renounceOwnership",
      "outputs": [],
      "stateMutability": "nonpayable",
      "type": "function"
    },
    {
      "inputs": [
        {
          "internalType": "uint256",
          "name": "",
          "type": "uint256"
        }
      ],
      "name": "suggestedTipRates",
      "outputs": [
        {
          "internalType": "uint256",
          "name": "",
          "type": "uint256"
        }
      ],
      "stateMutability": "view",
      "type": "function"
    },
    {
      "inputs": [
        {
          "internalType": "bytes32",
          "name": "",
          "type": "bytes32"
        }
      ],
      "name": "taxReceipts",
      "outputs": [
        {
          "internalType": "address",
          "name": "donor",
          "type": "address"
        },
        {
          "internalType": "address",
          "name": "primaryBeneficiary",
          "type": "address"
        },
        {
          "internalType": "uint256",
          "name": "charityAmount",
          "type": "uint256"
        },
        {
          "internalType": "uint256",
          "name": "giveProtocolAmount",
          "type": "uint256"
        },
        {
          "internalType": "uint256",
          "name": "totalTaxDeductible",
          "type": "uint256"
        },
        {
          "internalType": "address",
          "name": "tokenAddress",
          "type": "address"
        },
        {
          "internalType": "uint256",
          "name": "timestamp",
          "type": "uint256"
        },
        {
          "internalType": "string",
          "name": "receiptType",
          "type": "string"
        }
      ],
      "stateMutability": "view",
      "type": "function"
    },
    {
      "inputs": [
        {
          "internalType": "address",
          "name": "newOwner",
          "type": "address"
        }
      ],
      "name": "transferOwnership",
      "outputs": [],
      "stateMutability": "nonpayable",
      "type": "function"
    },
    {
      "inputs": [],
      "name": "unpause",
      "outputs": [],
      "stateMutability": "nonpayable",
      "type": "function"
    },
    {
      "inputs": [
        {
          "internalType": "address",
          "name": "charityAddress",
          "type": "address"
        },
        {
          "internalType": "bool",
          "name": "isActive",
          "type": "bool"
        }
      ],
      "name": "updateCharityStatus",
      "outputs": [],
      "stateMutability": "nonpayable",
      "type": "function"
    },
    {
      "inputs": [
        {
          "internalType": "address",
          "name": "newTreasury",
          "type": "address"
        }
      ],
      "name": "updateTreasury",
      "outputs": [],
      "stateMutability": "nonpayable",
      "type": "function"
    }
  ],
  "bytecode": "0x60e06040526101f460809081526103e860a0526107d060c0526200002890600690600362000165565b503480156200003657600080fd5b506040516200177b3803806200177b8339810160408190526200005991620001d2565b33806200008157604051631e4fbdf760e01b8152600060048201526024015b60405180910390fd5b6200008c8162000115565b50600180556001600160a01b038116620000e95760405162461bcd60e51b815260206004820152601860248201527f496e76616c696420747265617375727920616464726573730000000000000000604482015260640162000078565b600280546001600160a01b0390921661010002610100600160a81b031990921691909117905562000204565b600080546001600160a01b038381166001600160a01b0319831681178455604051919092169283917f8be0079c531659141344cd1fd0a4f28419497f9722a3daafe3b4186f6b6457e09190a35050565b828054828255906000526020600020908101928215620001a9579160200282015b82811115620001a9578251829061ffff1690559160200191906001019062000186565b50620001b7929150620001bb565b5090565b5b80821115620001b75760008155600101620001bc565b600060208284031215620001e557600080fd5b81516001600160a01b0381168114620001fd57600080fd5b9392505050565b61156780620002146000396000f3fe608060405234801561001057600080fd5b50600436106101585760003560e01c80636030e121116100c35780639d66e6ec1161007c5780639d66e6ec1461034b578063a024e2de14610393578063bc2846f5146103cc578063e1f1c4a7146103df578063ee3e97f9146103e8578063f2fde38b146103fb57600080fd5b80636030e121146102ef578063715018a6146103025780637f51bb1f1461030a5780638456cb591461031d5780638da5cb5b1461032557806399127b291461033657600080fd5b80633901a72b116101155780633901a72b1461028a5780633f4ba83a1461029d578063426cd7a7146102a55780634994132b146102b35780634a8a4fef146102c65780635c975abb146102d957600080fd5b80630dbf8da11461015d578063215435b11461017257806321df0384146101a75780632478239a146101ba5780632aa050dd1461022a57806336a0abcb14610251575b600080fd5b61017061016b366004611118565b61040e565b005b60025461018a9061010090046001600160a01b031681565b6040516001600160a01b0390911681526020015b60405180910390f35b6101706101b5366004611133565b61059c565b6101fe6101c8366004611118565b60036020526000908152604090208054600182015460029092015460ff808316936101009093046001600160a01b031692911684565b6040805194151585526001600160a01b039093166020850152918301521515606082015260800161019e565b61023d610238366004611175565b6105ca565b60405161019e98979695949392919061118e565b61027c61025f366004611226565b600460209081526000928352604080842090915290825290205481565b60405190815260200161019e565b61027c610298366004611175565b6106d3565b6101706106f4565b61027c66038d7ea4c6800081565b6101706102c1366004611259565b610706565b6101706102d43660046112a6565b6107b4565b60025460ff16604051901515815260200161019e565b61027c6102fd3660046112f3565b6107e6565b610170610855565b610170610318366004611118565b610867565b61017061091f565b6000546001600160a01b031661018a565b61033e61092f565b60405161019e9190611316565b6101fe610359366004611118565b6001600160a01b0390811660009081526003602052604090208054600182015460029092015460ff80831695610100909304909416931690565b61027c6103a1366004611226565b6001600160a01b03918216600090815260046020908152604080832093909416825291909152205490565b6101706103da366004611133565b610987565b61027c61271081565b61023d6103f6366004611175565b610c00565b610170610409366004611118565b610cde565b610416610d1c565b6001600160a01b0381166104715760405162461bcd60e51b815260206004820152601760248201527f496e76616c69642063686172697479206164647265737300000000000000000060448201526064015b60405180910390fd5b6001600160a01b03811660009081526003602052604090205460ff16156104da5760405162461bcd60e51b815260206004820152601a60248201527f4368617269747920616c726561647920726567697374657265640000000000006044820152606401610468565b6040805160808101825260018082526001600160a01b03848116602080850182815260008688018181526060880187815285835260038552918990209751885493516001600160a81b0319909416901515610100600160a81b031916176101009390961692909202949094178655519385019390935590516002909301805460ff191693151593909317909255915142815290917f3b047b355e75d32ac376195c35a37d1718e9e532f344bc9e39a655f21ea37d77910160405180910390a250565b60006127106105ab8385611370565b6105b59190611387565b90506105c385858584610987565b5050505050565b60008181526005602081905260408220805460018201546002830154600384015460048501549585015460068601546007870180548a998a998a998a998a998a9960609994986001600160a01b0394851698938516979296919591949091169290918190610637906113a9565b80601f0160208091040260200160405190810160405280929190818152602001828054610663906113a9565b80156106b05780601f10610685576101008083540402835291602001916106b0565b820191906000526020600020905b81548152906001019060200180831161069357829003601f168201915b505050505090509850985098509850985098509850985050919395975091939597565b600681815481106106e357600080fd5b600091825260209091200154905081565b6106fc610d1c565b610704610d49565b565b61070e610d1c565b6001600160a01b03821660009081526003602052604090205460ff166107525760405163f5bf2ccd60e01b81526001600160a01b0383166004820152602401610468565b6001600160a01b038216600081815260036020908152604091829020600201805460ff191685151590811790915591519182527f3b39c732bde88ff1cec0b0ab60065850daba2e831cd3175e3d86a1d4007ca542910160405180910390a25050565b60065460ff8216106107de5760405163abdd0cb960e01b815260ff82166004820152602401610468565b60006105b583835b60065460009060ff8316106108135760405163abdd0cb960e01b815260ff83166004820152602401610468565b61271060068360ff168154811061082c5761082c6113e3565b9060005260206000200154846108429190611370565b61084c9190611387565b90505b92915050565b61085d610d1c565b6107046000610d9b565b61086f610d1c565b6001600160a01b0381166108c55760405162461bcd60e51b815260206004820152601860248201527f496e76616c6964207472656173757279206164647265737300000000000000006044820152606401610468565b600280546001600160a01b03838116610100818102610100600160a81b031985161790945560405193909204169182907f4ab5be82436d353e61ca18726e984e561f5c1cc7c6d38b29d2553c790434705a90600090a35050565b610927610d1c565b610704610deb565b6060600680548060200260200160405190810160405280929190818152602001828054801561097d57602002820191906000526020600020905b815481526020019060010190808311610969575b5050505050905090565b61098f610e28565b610997610e52565b6001600160a01b03841660009081526003602052604090205460ff166109db5760405163f5bf2ccd60e01b81526001600160a01b0385166004820152602401610468565b6001600160a01b03841660009081526003602052604090206002015460ff16610a225760405163aaa4c46960e01b81526001600160a01b0385166004820152602401610468565b66038d7ea4c68000821015610a8357816040516319327c8160e11b81526004016104689181526040602082018190526019908201527f446f6e6174696f6e20616d6f756e7420746f6f20736d616c6c00000000000000606082015260800190565b6000610a8f82846113f9565b9050610aa66001600160a01b038516338786610e76565b8115610ace57600254610ace906001600160a01b038681169133916101009091041685610e76565b6001600160a01b03851660009081526003602052604081206001018054859290610af99084906113f9565b90915550503360009081526004602090815260408083206001600160a01b038916845290915281208054859290610b319084906113f9565b9091555050604080513360208201526001600160a01b038716918101919091526060810182905242608082015260009060a001604051602081830303815290604052805190602001209050610b8a81338887878a610ed0565b604080516001600160a01b038781168252602082018790529181018590526060810184905242608082015260a081018390529087169033907f6fa2c3913031f643b62a1b82aeb0f1726e9bd88eb6e04275bd92ed66491f32a69060c00160405180910390a35050610bfa60018055565b50505050565b6005602081905260009182526040909120805460018201546002830154600384015460048501549585015460068601546007870180546001600160a01b039788169996881698959794969594909316939192610c5b906113a9565b80601f0160208091040260200160405190810160405280929190818152602001828054610c87906113a9565b8015610cd45780601f10610ca957610100808354040283529160200191610cd4565b820191906000526020600020905b815481529060010190602001808311610cb757829003601f168201915b5050505050905088565b610ce6610d1c565b6001600160a01b038116610d1057604051631e4fbdf760e01b815260006004820152602401610468565b610d1981610d9b565b50565b6000546001600160a01b031633146107045760405163118cdaa760e01b8152336004820152602401610468565b610d51611068565b6002805460ff191690557f5db9ee0a495bf2e6ff9c91a7834c1ba4fdd244a5e8aa4e537bd38aeae4b073aa335b6040516001600160a01b03909116815260200160405180910390a1565b600080546001600160a01b038381166001600160a01b0319831681178455604051919092169283917f8be0079c531659141344cd1fd0a4f28419497f9722a3daafe3b4186f6b6457e09190a35050565b610df3610e52565b6002805460ff191660011790557f62e78cea01bee320cd4e420270b5ea74000d11b0c9f74754ebdbfc544b05a258610d7e3390565b600260015403610e4b57604051633ee5aeb560e01b815260040160405180910390fd5b6002600155565b60025460ff16156107045760405163d93c066560e01b815260040160405180910390fd5b604080516001600160a01b0385811660248301528416604482015260648082018490528251808303909101815260849091019091526020810180516001600160e01b03166323b872dd60e01b179052610bfa90859061108b565b604051806101000160405280866001600160a01b03168152602001856001600160a01b031681526020018481526020018381526020018385610f1291906113f9565b8152602001826001600160a01b0316815260200142815260200160008411610f64576040518060400160405280601281526020017153494e474c455f42454e454649434941525960701b815250610f8e565b6040518060400160405280601081526020016f4455414c5f42454e454649434941525960801b8152505b9052600087815260056020818152604092839020845181546001600160a01b03199081166001600160a01b03928316178355928601516001830180548516918316919091179055938501516002820155606085015160038201556080850151600482015560a085015192810180549092169290931691909117905560c0820151600682015560e082015160078201906110279082611471565b50506040516001600160a01b038716915087907fd9cf5d136760a032c6f9e3ddb7c0e6c51cb796a9da75b412516a531f5711d52190600090a3505050505050565b60025460ff1661070457604051638dfc202b60e01b815260040160405180910390fd5b600080602060008451602086016000885af1806110ae576040513d6000823e3d81fd5b50506000513d915081156110c65780600114156110d3565b6001600160a01b0384163b155b15610bfa57604051635274afe760e01b81526001600160a01b0385166004820152602401610468565b80356001600160a01b038116811461111357600080fd5b919050565b60006020828403121561112a57600080fd5b61084c826110fc565b6000806000806080858703121561114957600080fd5b611152856110fc565b9350611160602086016110fc565b93969395505050506040820135916060013590565b60006020828403121561118757600080fd5b5035919050565b600061010060018060a01b03808c1684526020818c16818601528a604086015289606086015288608086015281881660a08601528660c08601528260e0860152855191508183860152600092505b818310156111fb578583018101518584016101200152918201916111dc565b506101209150600082828601015281601f19601f830116850101925050509998505050505050505050565b6000806040838503121561123957600080fd5b611242836110fc565b9150611250602084016110fc565b90509250929050565b6000806040838503121561126c57600080fd5b611275836110fc565b91506020830135801515811461128a57600080fd5b809150509250929050565b803560ff8116811461111357600080fd5b600080600080608085870312156112bc57600080fd5b6112c5856110fc565b93506112d3602086016110fc565b9250604085013591506112e860608601611295565b905092959194509250565b6000806040838503121561130657600080fd5b8235915061125060208401611295565b6020808252825182820181905260009190848201906040850190845b8181101561134e57835183529284019291840191600101611332565b50909695505050505050565b634e487b7160e01b600052601160045260246000fd5b808202811582820484141761084f5761084f61135a565b6000826113a457634e487b7160e01b600052601260045260246000fd5b500490565b600181811c908216806113bd57607f821691505b6020821081036113dd57634e487b7160e01b600052602260045260246000fd5b50919050565b634e487b7160e01b600052603260045260246000fd5b8082018082111561084f5761084f61135a565b634e487b7160e01b600052604160045260246000fd5b601f82111561146c57600081815260208120601f850160051c810160208610156114495750805b601f850160051c820191505b8181101561146857828155600101611455565b5050505b505050565b815167ffffffffffffffff81111561148b5761148b61140c565b61149f8161149984546113a9565b84611422565b602080601f8311600181146114d457600084156114bc5750858301515b600019600386901b1c1916600185901b178555611468565b600085815260208120601f198616915b82811015611503578886015182559484019460019091019084016114e4565b50858210156115215787850151600019600388901b60f8161c191681555b5050505050600190811b0190555056fea2646970667358221220487c4bae6951501dc892fc2e4f33b1e22ab9c0625d5c44c1428a0cb727b5ea6964736f6c63430008140033",
  "linkReferences": {},
  "deployedLinkReferences": {}
}